:100000000C942A000C948F000C9447000C94470029
:100010000C9447000C9447000C9447000C94470044
:100020000C9447000C9447000C9447000C94470034
:100030000C9447000C9447000C9447000C94470024
:100040000C9447000C9447000C9447000C94470014
:100050000C94470011241FBECFE5D4E0DEBFCDBF16
:1000600010E0A0E6B0E0E8E3F2E002C005900D92F7
:10007000A036B107D9F720E0A0E6B0E001C01D929C
:10008000A436B207E1F70E9418010C941A010C94EF
:100090000000BB9A9DE693BF8CBF8F9A95BD63BD50
:1000A0000895C69A00000000C698089514BAC59A2B
:1000B000C398AF9B04C00E945100AF99FCCF8FEF53
:1000C00084BB0895CF93C82F0E945600C5BBC59826
:1000D000C3980E94510015BACF91089587B38866DE
:1000E00087BB85EA9EE00197F1F700C0000081E040
:1000F0000E94620083EF91E00197F1F700C00000D9
:1001000088E30E94620090E19A95F1F700C08EE0CA
:100110000E94620080E18A95F1F700C008951F9265
:100120000F920FB60F9211248F939F9380916000CE
:1001300090916100019769F41EBC8CB59DB59093B8
:100140006300809362001DBC1CBC10926100109281
:1001500060008091600090916100892B49F48EB518
:1001600081608EBD81E090E090936100809360009B
:100170009F918F910F900FBE0F901F9018951ABAF4
:100180008FEF87BB81BB0E946E006894CC24C6F8B9
:10019000DD24D39489B3C9B3C270D0E009B304702D
:1001A00010E080FBEE24E0F8F12C80FF14C0C23098
:1001B000D105D1F50430110599F5D8BAC2BA68EE67
:1001C00088EE0E94490030C0D8BA12BA60E088EECA
:1001D0000E944900DFCFEF28E9F6C230D10549F48B
:1001E000012BC1F6D8BA12BA60E088EE0E9449002D
:1001F000D1CFCD2B79F60430110549F418BAC2BA23
:1002000068EE80E00E944900C5CFCD2B19F6012B86
:1002100009F618BA12BA60E080E00E944900BACF2D
:10022000012B09F0B7CFD0CFEF2809F0B3CFEDCF36
:080230000E94BF00F894FFCF0B
:00000001FF
